{
  "transactions": [
    {
      "hash": "0x0581e5dd3155b3f7a1502ec902d0621771a6e782dbb7e099cd82a85cc9b7f910",
      "transactionType": "CALL",
      "contractName": null,
      "contractAddress": "0x859bb7e96fd78d505be45a87426d853301590942",
      "function": "mergePositions(address,bytes32,bytes32,uint256[],uint256)",
      "arguments": [
        "0xAa8Ff530B040A36eaF29CF161F79b44F4e76d254",
        "0x0000000000000000000000000000000000000000000000000000000000000000",
        "0xcdd12cafd4d5970ef086b23728537815a2976d4c19a341525008c56512a9ff03",
        "[1, 6]",
        "80"
      ],
      "transaction": {
        "from": "0xf9d353a2420f611bff2e503a3f316eaa536a49cf",
        "to": "0x859bb7e96fd78d505be45a87426d853301590942",
        "gas": "0x1c1e8",
        "value": "0x0",
        "input": "0x9e7212ad000000000000000000000000aa8ff530b040a36eaf29cf161f79b44f4e76d2540000000000000000000000000000000000000000000000000000000000000000cdd12cafd4d5970ef086b23728537815a2976d4c19a341525008c56512a9ff0300000000000000000000000000000000000000000000000000000000000000a00000000000000000000000000000000000000000000000000000000000000050000000000000000000000000000000000000000000000000000000000000000200000000000000000000000000000000000000000000000000000000000000010000000000000000000000000000000000000000000000000000000000000006",
        "nonce": "0x2b6",
        "chainId": "0x14a34"
      },
      "additionalContracts": [],
      "isFixedGasLimit": false
    }
  ],
  "receipts": [
    {
      "status": "0x1",
      "cumulativeGasUsed": "0x252cd2",
      "logs": [
        {
          "address": "0x859bb7e96fd78d505be45a87426d853301590942",
          "topics": [
            "0x4a39dc06d4c0dbc64b70af90fd698a233a518aa5d07e595d983b8c0526c8f7fb",
            "0x000000000000000000000000f9d353a2420f611bff2e503a3f316eaa536a49cf",
            "0x000000000000000000000000f9d353a2420f611bff2e503a3f316eaa536a49cf",
            "0x0000000000000000000000000000000000000000000000000000000000000000"
          ],
          "data": "0x000000000000000000000000000000000000000000000000000000000000004000000000000000000000000000000000000000000000000000000000000000a00000000000000000000000000000000000000000000000000000000000000002cb07a4e80e3334c38edc350438efd3d789c548ae83b026e668fb146e9ebe931d65bac1ccbd460bc07ab5d4bb1ad01621afdecc074e17fa5b5e323d955c59bbf1000000000000000000000000000000000000000000000000000000000000000200000000000000000000000000000000000000000000000000000000000000500000000000000000000000000000000000000000000000000000000000000050",
          "blockHash": "0xc38a2dd86f32c2496404bedc1bb6bb75501ea0370c583a1f1cebc80c9fdae3ec",
          "blockNumber": "0x12b9aa1",
          "transactionHash": "0x0581e5dd3155b3f7a1502ec902d0621771a6e782dbb7e099cd82a85cc9b7f910",
          "transactionIndex": "0x14",
          "logIndex": "0x31",
          "removed": false
        },
        {
          "address": "0xaa8ff530b040a36eaf29cf161f79b44f4e76d254",
          "topics": [
            "0xddf252ad1be2c89b69c2b068fc378daa952ba7f163c4a11628f55a4df523b3ef",
            "0x000000000000000000000000859bb7e96fd78d505be45a87426d853301590942",
            "0x000000000000000000000000f9d353a2420f611bff2e503a3f316eaa536a49cf"
          ],
          "data": "0x0000000000000000000000000000000000000000000000000000000000000050",
          "blockHash": "0xc38a2dd86f32c2496404bedc1bb6bb75501ea0370c583a1f1cebc80c9fdae3ec",
          "blockNumber": "0x12b9aa1",
          "transactionHash": "0x0581e5dd3155b3f7a1502ec902d0621771a6e782dbb7e099cd82a85cc9b7f910",
          "transactionIndex": "0x14",
          "logIndex": "0x32",
          "removed": false
        },
        {
          "address": "0x859bb7e96fd78d505be45a87426d853301590942",
          "topics": [
            "0x6f13ca62553fcc2bcd2372180a43949c1e4cebba603901ede2f4e14f36b282ca",
            "0x000000000000000000000000f9d353a2420f611bff2e503a3f316eaa536a49cf",
            "0x0000000000000000000000000000000000000000000000000000000000000000",
            "0xcdd12cafd4d5970ef086b23728537815a2976d4c19a341525008c56512a9ff03"
          ],
          "data": "0x000000000000000000000000aa8ff530b040a36eaf29cf161f79b44f4e76d25400000000000000000000000000000000000000000000000000000000000000600000000000000000000000000000000000000000000000000000000000000050000000000000000000000000000000000000000000000000000000000000000200000000000000000000000000000000000000000000000000000000000000010000000000000000000000000000000000000000000000000000000000000006",
          "blockHash": "0xc38a2dd86f32c2496404bedc1bb6bb75501ea0370c583a1f1cebc80c9fdae3ec",
          "blockNumber": "0x12b9aa1",
          "transactionHash": "0x0581e5dd3155b3f7a1502ec902d0621771a6e782dbb7e099cd82a85cc9b7f910",
          "transactionIndex": "0x14",
          "logIndex": "0x33",
          "removed": false
        }
      ],
      "logsBloom": "0x00000000000001000000010000000000000000000000001000000000000000000100100000000000000000000100000000000000000000000000000000000000000000400000000000000008000800000000000000000000000000000000000000000000030000000000000000000800000000000800000000000010000000000800000000000000000080000000000000000000100010000000000000000000000208000000000000000000000000000000000000000000000000000000000000000042000000000000000000000000000400000000000000000000000020000000000000000000000002000000000000000000000000000200000002000000",
      "type": "0x2",
      "transactionHash": "0x0581e5dd3155b3f7a1502ec902d0621771a6e782dbb7e099cd82a85cc9b7f910",
      "transactionIndex": "0x14",
      "blockHash": "0xc38a2dd86f32c2496404bedc1bb6bb75501ea0370c583a1f1cebc80c9fdae3ec",
      "blockNumber": "0x12b9aa1",
      "gasUsed": "0x133a1",
      "effectiveGasPrice": "0x2f3",
      "blobGasUsed": "0x0",
      "from": "0xf9d353a2420f611bff2e503a3f316eaa536a49cf",
      "to": "0x859bb7e96fd78d505be45a87426d853301590942",
      "contractAddress": null,
      "l1BaseFeeScalar": "0x44d",
      "l1BlobBaseFee": "0x1e0a3ca84",
      "l1BlobBaseFeeScalar": "0xa118b",
      "l1Fee": "0xc388545c63",
      "l1GasPrice": "0x5755ff544",
      "l1GasUsed": "0x927"
    }
  ],
  "libraries": [],
  "pending": [],
  "returns": {},
  "timestamp": 1735037991,
  "chain": 84532,
  "commit": "2745c30"
}