{
  "transactions": [
    {
      "hash": "0x4787e822921811fcdf34c56e11e30b2838a463e40fa5b7f27c2e385ecee5abb4",
      "transactionType": "CALL",
      "contractName": null,
      "contractAddress": "0xaa8ff530b040a36eaf29cf161f79b44f4e76d254",
      "function": "approve(address,uint256)",
      "arguments": [
        "0x859BB7E96FD78d505BE45a87426D853301590942",
        "1000000000"
      ],
      "transaction": {
        "from": "0xf9d353a2420f611bff2e503a3f316eaa536a49cf",
        "to": "0xaa8ff530b040a36eaf29cf161f79b44f4e76d254",
        "gas": "0xfd03",
        "value": "0x0",
        "input": "0x095ea7b3000000000000000000000000859bb7e96fd78d505be45a87426d853301590942000000000000000000000000000000000000000000000000000000003b9aca00",
        "nonce": "0x2b4",
        "chainId": "0x14a34"
      },
      "additionalContracts": [],
      "isFixedGasLimit": false
    },
    {
      "hash": "0xc94dae0731e42a7795dda60e72c441fd41fd14963a388b847acceead59983134",
      "transactionType": "CALL",
      "contractName": null,
      "contractAddress": "0x859bb7e96fd78d505be45a87426d853301590942",
      "function": "splitPosition(address,bytes32,bytes32,uint256[],uint256)",
      "arguments": [
        "0xAa8Ff530B040A36eaF29CF161F79b44F4e76d254",
        "0x0000000000000000000000000000000000000000000000000000000000000000",
        "0xcdd12cafd4d5970ef086b23728537815a2976d4c19a341525008c56512a9ff03",
        "[1, 6]",
        "1000"
      ],
      "transaction": {
        "from": "0xf9d353a2420f611bff2e503a3f316eaa536a49cf",
        "to": "0x859bb7e96fd78d505be45a87426d853301590942",
        "gas": "0x2df73",
        "value": "0x0",
        "input": "0x72ce4275000000000000000000000000aa8ff530b040a36eaf29cf161f79b44f4e76d2540000000000000000000000000000000000000000000000000000000000000000cdd12cafd4d5970ef086b23728537815a2976d4c19a341525008c56512a9ff0300000000000000000000000000000000000000000000000000000000000000a000000000000000000000000000000000000000000000000000000000000003e8000000000000000000000000000000000000000000000000000000000000000200000000000000000000000000000000000000000000000000000000000000010000000000000000000000000000000000000000000000000000000000000006",
        "nonce": "0x2b5",
        "chainId": "0x14a34"
      },
      "additionalContracts": [],
      "isFixedGasLimit": false
    }
  ],
  "receipts": [
    {
      "status": "0x1",
      "cumulativeGasUsed": "0x308e16",
      "logs": [
        {
          "address": "0xaa8ff530b040a36eaf29cf161f79b44f4e76d254",
          "topics": [
            "0x8c5be1e5ebec7d5bd14f71427d1e84f3dd0314c0f7b2291e5b200ac8c7c3b925",
            "0x000000000000000000000000f9d353a2420f611bff2e503a3f316eaa536a49cf",
            "0x000000000000000000000000859bb7e96fd78d505be45a87426d853301590942"
          ],
          "data": "0x000000000000000000000000000000000000000000000000000000003b9aca00",
          "blockHash": "0xebc4b9fa98e5e2aedb0269a45a65f7ed0ab31a0fc07776efa8a8f41994c35f9b",
          "blockNumber": "0x12b91b9",
          "transactionHash": "0x4787e822921811fcdf34c56e11e30b2838a463e40fa5b7f27c2e385ecee5abb4",
          "transactionIndex": "0x21",
          "logIndex": "0x36",
          "removed": false
        }
      ],
      "logsBloom": "0x00000000000001000000010000000000000000000000000000000000000000000000100000000000000000000000000000000000000000000000000000200000000000000000000000000000000800000000000000000000000000000000000000000000010000000000000000000000000000000000000000000000000000000000000000000000000000000000000000000000100000000000000000000000020208000000000000000000000000000000000000000000000000000000000000000000000000000000000000000000000000000000000000000000000000000010000000000000000000000000000000000000000000000200000000000000",
      "type": "0x2",
      "transactionHash": "0x4787e822921811fcdf34c56e11e30b2838a463e40fa5b7f27c2e385ecee5abb4",
      "transactionIndex": "0x21",
      "blockHash": "0xebc4b9fa98e5e2aedb0269a45a65f7ed0ab31a0fc07776efa8a8f41994c35f9b",
      "blockNumber": "0x12b91b9",
      "gasUsed": "0xb72e",
      "effectiveGasPrice": "0x396",
      "blobGasUsed": "0x0",
      "from": "0xf9d353a2420f611bff2e503a3f316eaa536a49cf",
      "to": "0xaa8ff530b040a36eaf29cf161f79b44f4e76d254",
      "contractAddress": null,
      "l1BaseFeeScalar": "0x44d",
      "l1BlobBaseFee": "0x787eb9bbc3",
      "l1BlobBaseFeeScalar": "0xa118b",
      "l1Fee": "0x1f1d1aeaf6ac",
      "l1GasPrice": "0x813ceb621",
      "l1GasUsed": "0x640"
    },
    {
      "status": "0x1",
      "cumulativeGasUsed": "0x36ace8",
      "logs": [
        {
          "address": "0xaa8ff530b040a36eaf29cf161f79b44f4e76d254",
          "topics": [
            "0xddf252ad1be2c89b69c2b068fc378daa952ba7f163c4a11628f55a4df523b3ef",
            "0x000000000000000000000000f9d353a2420f611bff2e503a3f316eaa536a49cf",
            "0x000000000000000000000000859bb7e96fd78d505be45a87426d853301590942"
          ],
          "data": "0x00000000000000000000000000000000000000000000000000000000000003e8",
          "blockHash": "0xebc4b9fa98e5e2aedb0269a45a65f7ed0ab31a0fc07776efa8a8f41994c35f9b",
          "blockNumber": "0x12b91b9",
          "transactionHash": "0xc94dae0731e42a7795dda60e72c441fd41fd14963a388b847acceead59983134",
          "transactionIndex": "0x25",
          "logIndex": "0x3d",
          "removed": false
        },
        {
          "address": "0x859bb7e96fd78d505be45a87426d853301590942",
          "topics": [
            "0x4a39dc06d4c0dbc64b70af90fd698a233a518aa5d07e595d983b8c0526c8f7fb",
            "0x000000000000000000000000f9d353a2420f611bff2e503a3f316eaa536a49cf",
            "0x0000000000000000000000000000000000000000000000000000000000000000",
            "0x000000000000000000000000f9d353a2420f611bff2e503a3f316eaa536a49cf"
          ],
          "data": "0x000000000000000000000000000000000000000000000000000000000000004000000000000000000000000000000000000000000000000000000000000000a00000000000000000000000000000000000000000000000000000000000000002cb07a4e80e3334c38edc350438efd3d789c548ae83b026e668fb146e9ebe931d65bac1ccbd460bc07ab5d4bb1ad01621afdecc074e17fa5b5e323d955c59bbf1000000000000000000000000000000000000000000000000000000000000000200000000000000000000000000000000000000000000000000000000000003e800000000000000000000000000000000000000000000000000000000000003e8",
          "blockHash": "0xebc4b9fa98e5e2aedb0269a45a65f7ed0ab31a0fc07776efa8a8f41994c35f9b",
          "blockNumber": "0x12b91b9",
          "transactionHash": "0xc94dae0731e42a7795dda60e72c441fd41fd14963a388b847acceead59983134",
          "transactionIndex": "0x25",
          "logIndex": "0x3e",
          "removed": false
        },
        {
          "address": "0x859bb7e96fd78d505be45a87426d853301590942",
          "topics": [
            "0x2e6bb91f8cbcda0c93623c54d0403a43514fabc40084ec96b6d5379a74786298",
            "0x000000000000000000000000f9d353a2420f611bff2e503a3f316eaa536a49cf",
            "0x0000000000000000000000000000000000000000000000000000000000000000",
            "0xcdd12cafd4d5970ef086b23728537815a2976d4c19a341525008c56512a9ff03"
          ],
          "data": "0x000000000000000000000000aa8ff530b040a36eaf29cf161f79b44f4e76d254000000000000000000000000000000000000000000000000000000000000006000000000000000000000000000000000000000000000000000000000000003e8000000000000000000000000000000000000000000000000000000000000000200000000000000000000000000000000000000000000000000000000000000010000000000000000000000000000000000000000000000000000000000000006",
          "blockHash": "0xebc4b9fa98e5e2aedb0269a45a65f7ed0ab31a0fc07776efa8a8f41994c35f9b",
          "blockNumber": "0x12b91b9",
          "transactionHash": "0xc94dae0731e42a7795dda60e72c441fd41fd14963a388b847acceead59983134",
          "transactionIndex": "0x25",
          "logIndex": "0x3f",
          "removed": false
        }
      ],
      "logsBloom": "0x00000000000001000000010000000000000000000000001000000000000000000100100000000000010000002100000000000000000000000000000000000000000000400000000000000008000800000000000000000000000000000000000000000000030000000001000000000800000000000800000000000010000000000800000000000000000000000000000000000000100000000000000000000000000208000000000000000000000000000000000000000000000000000000000000000002000000000000000000000000000400000000000000000000000020000000000000000000000002000000000000000000000000000200000002000000",
      "type": "0x2",
      "transactionHash": "0xc94dae0731e42a7795dda60e72c441fd41fd14963a388b847acceead59983134",
      "transactionIndex": "0x25",
      "blockHash": "0xebc4b9fa98e5e2aedb0269a45a65f7ed0ab31a0fc07776efa8a8f41994c35f9b",
      "blockNumber": "0x12b91b9",
      "gasUsed": "0x21474",
      "effectiveGasPrice": "0x396",
      "blobGasUsed": "0x0",
      "from": "0xf9d353a2420f611bff2e503a3f316eaa536a49cf",
      "to": "0x859bb7e96fd78d505be45a87426d853301590942",
      "contractAddress": null,
      "l1BaseFeeScalar": "0x44d",
      "l1BlobBaseFee": "0x787eb9bbc3",
      "l1BlobBaseFeeScalar": "0xa118b",
      "l1Fee": "0x2dd49787e87f",
      "l1GasPrice": "0x813ceb621",
      "l1GasUsed": "0x934"
    }
  ],
  "libraries": [],
  "pending": [],
  "returns": {},
  "timestamp": 1735033433,
  "chain": 84532,
  "commit": "2745c30"
}