{
  "transactions": [
    {
      "hash": "0x46d755d40c38a609e70bd8834665f193a90e6ff0fa72754895353f0e6b753f38",
      "transactionType": "CALL",
      "contractName": null,
      "contractAddress": "0x859bb7e96fd78d505be45a87426d853301590942",
      "function": "redeemPositions(address,bytes32,bytes32,uint256[])",
      "arguments": [
        "0xAa8Ff530B040A36eaF29CF161F79b44F4e76d254",
        "0x0000000000000000000000000000000000000000000000000000000000000000",
        "0xcdd12cafd4d5970ef086b23728537815a2976d4c19a341525008c56512a9ff03",
        "[1, 6]"
      ],
      "transaction": {
        "from": "0xf9d353a2420f611bff2e503a3f316eaa536a49cf",
        "to": "0x859bb7e96fd78d505be45a87426d853301590942",
        "gas": "0x193de",
        "value": "0x0",
        "input": "0x01b7037c000000000000000000000000aa8ff530b040a36eaf29cf161f79b44f4e76d2540000000000000000000000000000000000000000000000000000000000000000cdd12cafd4d5970ef086b23728537815a2976d4c19a341525008c56512a9ff030000000000000000000000000000000000000000000000000000000000000080000000000000000000000000000000000000000000000000000000000000000200000000000000000000000000000000000000000000000000000000000000010000000000000000000000000000000000000000000000000000000000000006",
        "nonce": "0x2b9",
        "chainId": "0x14a34"
      },
      "additionalContracts": [],
      "isFixedGasLimit": false
    }
  ],
  "receipts": [
    {
      "status": "0x1",
      "cumulativeGasUsed": "0x234e42",
      "logs": [
        {
          "address": "0x859bb7e96fd78d505be45a87426d853301590942",
          "topics": [
            "0xc3d58168c5ae7397731d063d5bbf3d657854427343f4c083240f7aacaa2d0f62",
            "0x000000000000000000000000f9d353a2420f611bff2e503a3f316eaa536a49cf",
            "0x000000000000000000000000f9d353a2420f611bff2e503a3f316eaa536a49cf",
            "0x0000000000000000000000000000000000000000000000000000000000000000"
          ],
          "data": "0xcb07a4e80e3334c38edc350438efd3d789c548ae83b026e668fb146e9ebe931d0000000000000000000000000000000000000000000000000000000000000398",
          "blockHash": "0x4d64c3029f555fc5f4cc5027900725e8577346e0249e285642d1a513dff279e3",
          "blockNumber": "0x12c2ebd",
          "transactionHash": "0x46d755d40c38a609e70bd8834665f193a90e6ff0fa72754895353f0e6b753f38",
          "transactionIndex": "0x17",
          "logIndex": "0x31",
          "removed": false
        },
        {
          "address": "0x859bb7e96fd78d505be45a87426d853301590942",
          "topics": [
            "0xc3d58168c5ae7397731d063d5bbf3d657854427343f4c083240f7aacaa2d0f62",
            "0x000000000000000000000000f9d353a2420f611bff2e503a3f316eaa536a49cf",
            "0x000000000000000000000000f9d353a2420f611bff2e503a3f316eaa536a49cf",
            "0x0000000000000000000000000000000000000000000000000000000000000000"
          ],
          "data": "0x65bac1ccbd460bc07ab5d4bb1ad01621afdecc074e17fa5b5e323d955c59bbf10000000000000000000000000000000000000000000000000000000000000398",
          "blockHash": "0x4d64c3029f555fc5f4cc5027900725e8577346e0249e285642d1a513dff279e3",
          "blockNumber": "0x12c2ebd",
          "transactionHash": "0x46d755d40c38a609e70bd8834665f193a90e6ff0fa72754895353f0e6b753f38",
          "transactionIndex": "0x17",
          "logIndex": "0x32",
          "removed": false
        },
        {
          "address": "0xaa8ff530b040a36eaf29cf161f79b44f4e76d254",
          "topics": [
            "0xddf252ad1be2c89b69c2b068fc378daa952ba7f163c4a11628f55a4df523b3ef",
            "0x000000000000000000000000859bb7e96fd78d505be45a87426d853301590942",
            "0x000000000000000000000000f9d353a2420f611bff2e503a3f316eaa536a49cf"
          ],
          "data": "0x0000000000000000000000000000000000000000000000000000000000000398",
          "blockHash": "0x4d64c3029f555fc5f4cc5027900725e8577346e0249e285642d1a513dff279e3",
          "blockNumber": "0x12c2ebd",
          "transactionHash": "0x46d755d40c38a609e70bd8834665f193a90e6ff0fa72754895353f0e6b753f38",
          "transactionIndex": "0x17",
          "logIndex": "0x33",
          "removed": false
        },
        {
          "address": "0x859bb7e96fd78d505be45a87426d853301590942",
          "topics": [
            "0x2682012a4a4f1973119f1c9b90745d1bd91fa2bab387344f044cb3586864d18d",
            "0x000000000000000000000000f9d353a2420f611bff2e503a3f316eaa536a49cf",
            "0x000000000000000000000000aa8ff530b040a36eaf29cf161f79b44f4e76d254",
            "0x0000000000000000000000000000000000000000000000000000000000000000"
          ],
          "data": "0xcdd12cafd4d5970ef086b23728537815a2976d4c19a341525008c56512a9ff0300000000000000000000000000000000000000000000000000000000000000600000000000000000000000000000000000000000000000000000000000000398000000000000000000000000000000000000000000000000000000000000000200000000000000000000000000000000000000000000000000000000000000010000000000000000000000000000000000000000000000000000000000000006",
          "blockHash": "0x4d64c3029f555fc5f4cc5027900725e8577346e0249e285642d1a513dff279e3",
          "blockNumber": "0x12c2ebd",
          "transactionHash": "0x46d755d40c38a609e70bd8834665f193a90e6ff0fa72754895353f0e6b753f38",
          "transactionIndex": "0x17",
          "logIndex": "0x34",
          "removed": false
        }
      ],
      "logsBloom": "0x00000000000001000000010000000000000000000000000000000000000000000100100004000000000000000100002000000000000000000000000000002000000000000000000000000008000800000000000008000000000000000000000000000000030000000000000000000800000000000000000000000010000000000800000000000000000000000000000000000000100000400000000000000000000208000000000000000000000000000000000000000000000000000000000000000002000000000000000000000000000000000008000000000000000020000000000000000000000000000001000000000000800000000200080000000000",
      "type": "0x2",
      "transactionHash": "0x46d755d40c38a609e70bd8834665f193a90e6ff0fa72754895353f0e6b753f38",
      "transactionIndex": "0x17",
      "blockHash": "0x4d64c3029f555fc5f4cc5027900725e8577346e0249e285642d1a513dff279e3",
      "blockNumber": "0x12c2ebd",
      "gasUsed": "0x12465",
      "effectiveGasPrice": "0x4af",
      "blobGasUsed": "0x0",
      "from": "0xf9d353a2420f611bff2e503a3f316eaa536a49cf",
      "to": "0x859bb7e96fd78d505be45a87426d853301590942",
      "contractAddress": null,
      "l1BaseFeeScalar": "0x44d",
      "l1BlobBaseFee": "0x1",
      "l1BlobBaseFeeScalar": "0xa118b",
      "l1Fee": "0x31006bc612",
      "l1GasPrice": "0x14057317dd",
      "l1GasUsed": "0x8ae"
    }
  ],
  "libraries": [],
  "pending": [],
  "returns": {},
  "timestamp": 1735113824,
  "chain": 84532,
  "commit": "2745c30"
}