{
  "transactions": [
    {
      "hash": "0xa5aa6411fb3dc5179b5e689bee1fda11b32c857ee0fc7cbb387b95236f933c65",
      "transactionType": "CALL",
      "contractName": null,
      "contractAddress": "0x859bb7e96fd78d505be45a87426d853301590942",
      "function": "reportPayouts(bytes32,uint256[])",
      "arguments": [
        "0x0000000000000000000000000000000000000000000000000000000000000001",
        "[0, 1, 0]"
      ],
      "transaction": {
        "from": "0xf9d353a2420f611bff2e503a3f316eaa536a49cf",
        "to": "0x859bb7e96fd78d505be45a87426d853301590942",
        "gas": "0x1ca2f",
        "value": "0x0",
        "input": "0xc49298ac000000000000000000000000000000000000000000000000000000000000000100000000000000000000000000000000000000000000000000000000000000400000000000000000000000000000000000000000000000000000000000000003000000000000000000000000000000000000000000000000000000000000000000000000000000000000000000000000000000000000000000000000000000010000000000000000000000000000000000000000000000000000000000000000",
        "nonce": "0x2b8",
        "chainId": "0x14a34"
      },
      "additionalContracts": [],
      "isFixedGasLimit": false
    }
  ],
  "receipts": [
    {
      "status": "0x1",
      "cumulativeGasUsed": "0x2fc13d",
      "logs": [
        {
          "address": "0x859bb7e96fd78d505be45a87426d853301590942",
          "topics": [
            "0xb44d84d3289691f71497564b85d4233648d9dbae8cbdbb4329f301c3a0185894",
            "0xcdd12cafd4d5970ef086b23728537815a2976d4c19a341525008c56512a9ff03",
            "0x000000000000000000000000f9d353a2420f611bff2e503a3f316eaa536a49cf",
            "0x0000000000000000000000000000000000000000000000000000000000000001"
          ],
          "data": "0x000000000000000000000000000000000000000000000000000000000000000300000000000000000000000000000000000000000000000000000000000000400000000000000000000000000000000000000000000000000000000000000003000000000000000000000000000000000000000000000000000000000000000000000000000000000000000000000000000000000000000000000000000000010000000000000000000000000000000000000000000000000000000000000000",
          "blockHash": "0xb4a853d8ca786cb98c2aea31bb81d7269ada131c4ea77330c618d9357461e49b",
          "blockNumber": "0x12c2aba",
          "transactionHash": "0xa5aa6411fb3dc5179b5e689bee1fda11b32c857ee0fc7cbb387b95236f933c65",
          "transactionIndex": "0x1e",
          "logIndex": "0x44",
          "removed": false
        }
      ],
      "logsBloom": "0x00000000000001000000000008000000000000000000001000000000000000000100000000000000000000000100000000000000000000000000000000040000000000400000000000000000000000000000000000040000000000000000000000000000000000000000000000000000000000000000000000000000000000000800000000000000400000000000000000000000000000000000000000000000000208000000000000000000000000000000000000000000000000000000000000000000000000000000000000000000000000000000000000000000000040000000000000000000000002000000000000080000000000000000000000000000",
      "type": "0x2",
      "transactionHash": "0xa5aa6411fb3dc5179b5e689bee1fda11b32c857ee0fc7cbb387b95236f933c65",
      "transactionIndex": "0x1e",
      "blockHash": "0xb4a853d8ca786cb98c2aea31bb81d7269ada131c4ea77330c618d9357461e49b",
      "blockNumber": "0x12c2aba",
      "gasUsed": "0x1394a",
      "effectiveGasPrice": "0x187f2",
      "blobGasUsed": "0x0",
      "from": "0xf9d353a2420f611bff2e503a3f316eaa536a49cf",
      "to": "0x859bb7e96fd78d505be45a87426d853301590942",
      "contractAddress": null,
      "l1BaseFeeScalar": "0x44d",
      "l1BlobBaseFee": "0x1",
      "l1BlobBaseFeeScalar": "0xa118b",
      "l1Fee": "0xdd47e28e0",
      "l1GasPrice": "0x7d9d10869",
      "l1GasUsed": "0x640"
    }
  ],
  "libraries": [],
  "pending": [],
  "returns": {},
  "timestamp": 1735111771,
  "chain": 84532,
  "commit": "2745c30"
}